:1000000000800020BD010000F5450000AD45000066
:10001000AD450000AD450000AD450000AD45000018
:10002000AD450000AD450000AD450000F5450000C0
:10003000F5450000AD450000555B0000595C00002F
:10004000F5450000F5450000F5450000F5450000C8
:10005000F5450000F5450000F5450000F5450000B8
:10006000F5450000F5450000F5450000F5450000A8
:10007000F5450000F5450000F5450000F545000098
:10008000F5450000F5450000F5450000F545000088
:10009000F5450000F5450000F5450000F545000078
:1000A000B9350000C5350000F5450000F5450000F4
:1000B000F5450000F5450000F5450000F545000058
:1000C000F5450000F5450000F5450000F545000048
:1000D000F5450000F5450000F5450000F545000038
:1000E000F5450000F5450000F5450000F545000028
:1000F000F545000071650000F54500009D660000B3
:10010000F5450000C9670000F5450000F545000011
:10011000F5450000F5450000F5450000F5450000F7
:10012000F5450000F5450000F5450000F5450000E7
:10013000F5450000F5450000F5450000F5450000D7
:10014000F5450000F5450000F5450000F5450000C7
:10015000F5450000F5450000F5450000F5450000B7
:10016000F5450000214E0000F5450000F545000072
:10017000F5450000F5450000F5450000F545000097
:10018000F5450000F5450000F5450000F545000087
:10019000F5450000F5450000F5450000F545000077
:1001A000F5450000F5450000F5450000F545000067
:1001B000F5450000F5450000F5450000564B4CF2B2
:1001C000205210B51A804DF628121A8000BF00BFC9
:1001D00004F014FA514B4FF010621A60504A9A60C2
:1001E000504ADA60504A136813F4807304D14F49BF
:1001F0000B604FF4A85313604D4B1A78110703D5C9
:100200001A7842F008021A704A4B4B492A221A7097
:100210004A4A4B4B8B4204D252F8040F43F8040B6A
:10022000F8E7484B484900228B4202D243F8042B9E
:10023000FAE74649464A002352F8230041F82300D2
:1002400001336F2BF8D1434B434A802103F8011B44
:100250009342FBD1414B3D4A1A60414B8A221A70AE
:10026000A3F5805324225A70A0221A709A7992071B
:10027000FCD59A79D406FCD43A4A937903F00C035E
:10028000082B384BF9D103221A7140225A719A79FE
:100290009006FCD5334A9179324B4906FBD5324A58
:1002A000324911600221516020221A709A7902F0BD
:1002B0000C020C2AFAD12E4B2E4A1A602E4B2F4AD2
:1002C0001A6000225A60072243F8042C2C4AC3F813
:1002D0000C2D62B604F07CFC144B1B68DA0705D5C4
:1002E000284804F0CBFA284B284A1A60284B1B7880
:1002F0005B0609D5244C254B22689A4204D121483B
:1003000004F0BCFA0023236007F088FB04F07CF9BA
:1003100005F0D4FEFEE700BF0E200540308004400B
:10032000823F04000100002B10D0034014D0034092
:1003300002D0074000E007405493FF1F08B10000BF
:100340002087FF1F5493FF1F6CA2FF1F0082FF1F17
:100350000000000000E400E05FE400E008ED00E0E1
:100360000050064000400640448004400000030165
:1003700004800440C010050014E000E0FF76010096
:10038000000020200EF0C85A1CE00340A5C3945A78
:1003900000F00740FFFFFFFFFFFFFFFFFFFFFFFF32
:1003A000FFFFFFFFFFFFFFFFFFFFFFFFFFFFFFFF5D
:1003B000FFFFFFFFFFFFFFFFFFFFFFFFFFFFFFFF4D
:1003C000FFFFFFFFFFFFFFFFFFFFFFFFFFFFFFFF3D
:1003D000FFFFFFFFFFFFFFFFFFFFFFFFFFFFFFFF2D
:1003E000FFFFFFFFFFFFFFFFFFFFFFFFFFFFFFFF1D
:1003F000FFFFFFFFFFFFFFFFFFFFFFFFFFFFFFFF0D
:10040000FFFFFFFFFFFFFFFFFFFFFFFFDEF9FFFF23
:1004100010B5054C237833B9044B13B10448AFF33E
:1004200000800123237010BD5493FF1F00000000C3
:100430000CB10000084B10B51BB108490848AFF3D8
:1004400000800848036803B910BD074B002BFBD0A0
:10045000BDE81040184700BF000000005893FF1F80
:100460000CB100005493FF1F0000000000207047F3
:10047000704700BFF0B5C47DBDF81450022C75D094
:10048000032C6ED0012C32D0002A79DBB0F9084061
:10049000944265DD002978DBB0F906605818B04257
:1004A000C4BF731A1BB2002B5ADD002A1046B8BF16
:1004B000D01D012440F3CF0002F00702704E01EB83
:1004C000C01104FA02F2A5423144D2B200F0A48075
:1004D000C0F09580022D43D1013B11FA83F04B1EF1
:1004E00013F8011F514083421970F9D1F0BDC4883F
:1004F000013CA21A12B2002A7BDBB0F906409442FA
:100500002EDD00293DDBB0F908605818B042C4BFA9
:10051000731A1BB2002B23DDC9B2C808584C02EB7A
:10052000C01211F00701DBB204EB020039D0C1F1B7
:100530000801C9B2534E8B42765C2AD2C3EB010E3E
:10054000FF2747FA0EF7012D06EA070674D06ED38F
:10055000022D40F09480A75C7E40A6548B421DD2B1
:10056000F0BD0489E41A611A09B2C4E70689C48897
:10057000013EB21AE41A12B2611A002A09B285DAEF
:10058000F0BD0B441BB20021BDE70B441BB20021A0
:1005900082E7012D50D04AD3022DDCD05B1ADBB2AA
:1005A0008030072B18D9022D4ED0A3F10806C6F3D0
:1005B000C406B11C00EBC111012D0CBFFF240024A7
:1005C00000F1800202F8804C80328A42FAD1013672
:1005D00000EBC61003F00703002BC1D02A4A012DFF
:1005E000D35C2DD006D3022DBAD1027853400370CC
:1005F000F0BDF0BD027822EA03030370F0BD013BB9
:10060000D24311FA83F0D2B24B1E13F8011F1140EE
:1006100083421970F9D1F0BD013B11FA83F04B1EF2
:1006200013F8011F114383421970F9D1F0BDA75C83
:1006300027EA0606A65491E7A75C3E43A6548DE739
:10064000027813430370F0BDA3F10805C5F3C40598
:10065000AC1C00EBC41400F1800212F8801CC943EA
:1006600002F8801C8032A242F7D1013513F0070353
:1006700000EBC5103FF474AF034AD35CB5E7F0BD9F
:100680007097FF1F0488FF1FFC87FF1FF0B5C47D14
:10069000BDF81450022C76D0032C6FD0012C37D02B
:1006A00000297ADBB0F906408C4230DD002A79DB84
:1006B000B0F908609818B042C4BFB31A1BB2002B3F
:1006C00025DDD2B2D008754C01EBC01112F0070243
:1006D000DBB204EB010071D0C2F10802D2B2704E5D
:1006E0009342B65C62D2C3EB020EFF2747FA0EF7C5
:1006F000012D06EA070600F0AC80C0F0A580022DAF
:1007000040F0CA80675C7E406654934253D2F0BD8D
:10071000C488E41AA21A12B2002977DBB0F90840A3
:100720008C42F4DD002A39DBB0F906609818B0423B
:10073000C4BFB31A1BB2002BE9DD00290846B8BFBD
:10074000C81D012440F3CF0001F00701534E02EB16
:10075000C01004FA01F1A54206EB0002C9B268D04C
:100760005AD3022DD3D1013B12FA83F0531E13F852
:10077000012F4A4083421A70F9D1F0BD0489013C2F
:10078000611A09B2C8E7C6880489013E711AE41AE1
:1007900009B2A21A002912B284DAF0BD13441BB2C6
:1007A0000022C1E713441BB2002281E7012D50D083
:1007B0004AD3022DA6D09B1ADBB28030072B18D962
:1007C000022D4ED0A3F10806C6F3C406B11C00EBFF
:1007D000C111012D0CBFFF24002400F1800202F89A
:1007E000804C80328A42FAD1013600EBC61003F009
:1007F0000703002B8BD02B4A012DD35C2DD006D3C1
:10080000022D84D1027853400370F0BDF0BD027810
:1008100022EA03030370F0BD013BC94312FA83F0DF
:10082000C9B2531E13F8012F0A4083421A70F9D13E
:10083000F0BD013B12FA83F0531E13F8012F0A4357
:1008400083421A70F9D1F0BD675C27EA0606665448
:100850005BE7675C3E43665457E7027813430370D7
:10086000F0BDA3F10805C5F3C405AC1C00EBC4142E
:1008700000F1800111F8802CD24301F8802C8031E6
:10088000A142F7D1013513F0070300EBC5103FF487
:100890003EAF044AD35CB5E7F0BD00BF7097FF1FC1
:1008A0000488FF1FFC87FF1FF8B50D1E06DB1446EA
:1008B0001F46064603F046FB854200DBF8BD002CD0
:1008C000FCDB304603F042FB8442F7DA304603F0AB
:1008D00037FB02284BD0032843D0012804D1F388EA
:1008E000013B1B1B2C461DB2012F03D026D3022F28
:1008F00012D0F8BD002C2346B8BFE31D43F3CF034D
:1009000005EBC3151E4804F00704435D012101FAFD
:1009100004F41C434455F8BD002C2346B8BFE31D26
:1009200043F3CF0305EBC315154804F00704435DFB
:10093000012101FA04F45C404455F8BD002C234623
:10094000B8BFE31D43F3CF0305EBC3150C4804F018
:100950000704435D012101FA04F423EA0404445529
:10096000F8BD3389013B5B1B25461CB2BCE7F1880F
:1009700032890139013A4D1B141B2DB224B2B3E761
:100980007097FF1F38B5402204460D46802103F0C2
:1009900005F8FF23064A84F8265084F8233084F8AB
:1009A000273084F8253084F824302260204638BD72
:1009B00070A200004FF480620021014807F09CBB48
:1009C0007097FF1FF8B590F92330013304460F46A6
:1009D00042D0012190F8270004F070F8002194F82B
:1009E000250004F06BF8002194F8270004F066F865
:1009F00094F8283083B1254B1A684FF00043D36236
:100A00005763D36A002BFCDA936B94F8270001211B
:100A1000BDE8F84004F052B808268025002194F87B
:100A2000240004F04BF817EA05034FF0010194F895
:100A3000230008BF194604F041F8012194F824006E
:100A4000CD4004F03BF8013EE8D194F827000121A5
:100A5000BDE8F84004F032B80D4C90F82130012583
:100A60005B002046002184F83B3084F85E5084F817
:100A70005D5002F073FB3946204602F06FFB2946B9
:100A80002046BDE8F84002F00DBD00BF3C89FF1FC5
:100A90006488FF1FF8B50E4690F9231080F82120D6
:100AA00001250131044680F822601F4680F820505D
:100AB00000F0AD80294690F8250004F013F829468F
:100AC00094F8270004F00EF894F82830002B00F07A
:100AD000D680824D284603F0E3FAEB7A002B40F0F3
:100AE000DE802B687E4AD968914206D07D4D7E48D3
:100AF0007E491D60DA6018611960E7B194F926003B
:100B0000002818DBC0B2012103F0ECFF012194F8AA
:100B1000260003F0D3FF012004F00CF8002194F824
:100B2000260003F0CBFF0A2004F004F8012194F81A
:100B3000260003F0C3FFAE212046FFF743FFD52177
:100B40002046FFF73FFF80212046FFF73BFFA8210B
:100B50002046FFF737FF3F212046FFF733FFD32121
:100B60002046FFF72FFF00212046FFF72BFF4021F3
:100B70002046FFF727FF8D212046FFF723FF012E98
:100B800050D014212046FFF71DFF20212046FFF7FB
:100B900019FF00212046FFF715FFA1212046FFF78E
:100BA00011FFC8212046FFF70DFFDA212046FFF78D
:100BB00009FF12212046FFF705FF81212046FFF79C
:100BC00001FFCF212046FFF7FDFED9212046FFF788
:100BD000F9FEF1212046FFF7F5FE2046DB21FFF765
:100BE000F1FE20464021FFF7EDFE2046A421FFF74D
:100BF000E9FE2046A621FFF7E5FE20462E21FFF75D
:100C0000E1FE2046AF21BDE8F840FFF7DBBE3848E3
:100C100002F0B8FA374B00201A21802298705970E0
:100C20009A706AE720461021FFF7CCFE204620216B
:100C3000FFF7C8FE20460021FFF7C4FE2046A12191
:100C4000FFF7C0FE2046C821FFF7BCFE2046DA2190
:100C5000FFF7B8FE20461221FFF7B4FE204681219F
:100C6000FFF7B0FE20469F21FFF7ACFE2046D921BA
:100C7000FFF7A8FE22212046FFF7A4FEADE7294694
:100C800094F8230003F02EFF294694F8240003F083
:100C900029FF94F82830002B3FF42FAF19E772B6E4
:100CA000EB7AD8071A4606D51349EA680868024065
:100CB000AA610A601A46990706D510492B69086887
:100CC000EA7A0340EB610B60530705D50C4A6B6968
:100CD00011680B402B62136062B602E73C89FF1F6C
:100CE0000000013801403F000000017800003F8013
:100CF0006488FF1F0060064080E100E084E100E0BE
:100D000088E100E038B5044679B990F92230012B2A
:100D10000CBF9F25CF2520468121FFF753FE294692
:100D20002046BDE83840FFF74DBE0025F3E700BF81
:100D30002DE9F04F2121044685B0FFF743FE204600
:100D40000021FFF73FFE20467F21FFF73BFE2046B4
:100D50002221FFF737FE20460021FFF733FE204611
:100D60000721FFF72FFE94F9233001334AD00121E8
:100D700094F82700DFF87882DFF878B203F09EFE5F
:100D8000012194F8250003F099FE002194F8270032
:100D900003F094FE08F580694FF0004A94F828307B
:100DA00018F8017F13BB08268025002194F8240041
:100DB00003F084FE17EA05034FF0010194F82300C5
:100DC00008BF194603F07AFE012194F82400CD40B3
:100DD00003F074FE013EE8D1C145DFD194F827004D
:100DE000012105B0BDE8F04F03F068BEDBF800203C
:100DF000C2F82CA05763D36A002BFCDAC145936B71
:100E0000CCD1EBE794F82060002E76D10F21724808
:100E1000724F734D04F038FD724804F05FFF94F890
:100E200021304FF001085B002021384687F83B3025
:100E300087F85E8087F85D8002F090F902213846DD
:100E400002F08CF94146384602F02CFBB0230296A2
:100E5000039394F82130614887F85E805B0000219D
:100E600087F83B3087F85D8002F078F903995B489A
:100E700002F074F90121594802F014FB029A02F1C0
:100E8000080602F18809B6B21FFA89F99346564A54
:100E90000BF1090C02EB0B01AC4405EB0B03002238
:100EA00013F801EB11F8010B864518BF01229C4590
:100EB000F6D1002A4ED10836B6B20BF1080BB14577
:100EC0001FFA8BFBE3D1029B03F1800A1FFA8AF31E
:100ED0001A460293039B0133DBB2B2F5806F039392
:100EE000B7D14FF480623E493F4803F017F9002321
:100EF00084F8203005B0BDE8F08F0C213B48374F17
:100F0000374D04F0C1FC374804F0E8FE00264FF0EE
:100F1000010994F82130314887F85E905B00402148
:100F200087F83B3087F85D9002F018F906F1100859
:100F30001FFA88F8A95D29480136B6B202F00EF909
:100F40004645F7D10121254802F0ACFAB6F5806F8D
:100F5000DFD1C6E7CBF3021394F821201F48019399
:100F60000BF07F0AAAEB031A52005FFA8AFA0021FB
:100F700087F83B2087F85E8087F85D8002F0EEF806
:100F80005146164802F0EAF8019B144803F110019B
:100F900002F0E4F80121114802F084FA94F82130BB
:100FA0000E4887F85E805B00402187F83B3087F869
:100FB0005D8002F0D3F8DA4615F80A1007480AF106
:100FC000010A1FFA8AFA02F0C9F85645F4D1012144
:100FD000024802F067FA6EE7C0A200006488FF1FB3
:100FE0007097FF1F648AFF1F7093FF1FD0A200003D
:100FF0006F97FF1F3C89FF1F1F4B10B45A6913687E
:10100000506819780478507A137A044201EA03018F
:101010001AD0937A03F0030309B143F0040343F0B9
:1010200008039910013B91720D2B0BD8DFE803F0F8
:101030001E0719070A141E1E140A0719071ED36873
:10104000013BD36010BC7047937A03F0030300297F
:10105000E7D043F00403E4E7D36810BC023BD3605D
:101060007047D36810BC0233D3607047D36810BC9C
:101070000133D360704700BFE49EFF1F1F4B10B4C5
:101080009A691368506819780478507A137A044280
:1010900001EA03011AD0937A03F0030309B143F084
:1010A000040343F008039910013B91720D2B0BD8F8
:1010B000DFE803F01E0719070A141E1E140A071999
:1010C000071ED368013BD36010BC7047937A03F0CE
:1010D00003030029E7D043F00403E4E7D36810BC1E
:1010E000023BD3607047D36810BC0233D3607047B3
:1010F000D36810BC0133D360704700BFE49EFF1F6C
:101100002DE9F043044689B00E2003F0DDFC38B32E
:1011100094F82030002B74D0A768614E256B33689B
:101120000493049B6362002D4FF0010384F8203088
:101130001DDC33680693069B594ADB1BB3F57A7FA7
:1011400008D813680793079BE26A9B1AB3F57A7F66
:1011500040F2928000202076606009B0BDE8F08304
:10116000256BA7684E4E84F82000002DE1DD237E1C
:10117000002BDED023699D42DBDB63699D42D8DA18
:10118000A16C484BCA1783FB0103C2EB630303EB5B
:101190008303CB1A04EB830301F101085D6304F1BF
:1011A000440104F13003C4F84880002053F8042FB0
:1011B0008B421044FAD106F075F93B4906F07AFAF1
:1011C0000021814606F074FB002861D04FF07C516D
:1011D000484606F0B3F806F095FBB8F1050F08DDB8
:1011E000A84206D0431B002BB8BF5B42022BD8BFDE
:1011F000054633680593059A65600023E262236320
:1012000097E7274EA76833680093009BDB1B142BDE
:1012100084D933680293029B326801920198DB1BE8
:10122000E360C01B05F0C6FC0022204B05F062FE07
:1012300000221F4B05F034FD02460B4600201D49DD
:1012400005F058FE06F024F81B4906F07FF900214E
:10125000054606F02DFB98B14FF07C51284606F06C
:101260006DF806F04FFB33680393039F206301235F
:101270000546A760237652E7606809B0BDE8F083B1
:101280004FF07C51284606F057F806F03BFBEAE7A2
:101290004FF07C51484606F04FF806F033FB9CE7D0
:1012A000749FFF1F676666660000A04000408F4085
:1012B000000010400000F03F0000704270B5ADF536
:1012C000826D041D4FF4806204A8124902F026FFCB
:1012D00001233C2220460221FFF7DCFB20460121AE
:1012E000FFF710FD2046FFF765FB2046012102F0C5
:1012F00023FE012600224025802104AB20468DE8F4
:101300006200114602F0D2FB2046FFF711FD0DF5F9
:10131000826D70BDE0A200002DE9F84F4FEA001A7F
:101320000AEB0005AD00344E531E072B735D94BFCE
:1013300002F00F02082262F30713735507468B462B
:101340003544002440E006F033FF05F043FC28A3B9
:10135000D3E9002305F0CEFD0022284B05F0A0FCC8
:1013600005F096FF686006F023FF05F033FC20A32C
:10137000D3E9002305F0BEFD0022214B05F090FCCF
:10138000002200238046894605F010FF00221D4BF5
:1013900008B34046494605F0D1FA05F031FF00F0A8
:1013A0000F000AEB07039B0003EBC4033344013433
:1013B0001A7A60F303021A721A89082C6FF3081262
:1013C00005F108051A810FD0BBF1010FBBD10E4BFF
:1013D0006B600020E5E700220A4B4046494605F0D5
:1013E000ABFA05F00DFFDAE7BDE8F88FAFF3008048
:1013F0000000C0FFFFFFDF41349CFF1F00001440CE
:10140000000024400000E03F00002040FFFFFFFFFD
:101410002DE9F047531EC700072B07EB00034FEAE7
:101420004303274D8A46E95C94BF02F00F0208226D
:1014300062F307110646E95400242AE006F0B8FEDC
:1014400005F0C8FB1CA3D3E9002305F053FD0022DF
:1014500000238046894605F0A9FE0022194BE8B119
:101460004046494605F06AFA05F0CAFE00F0010060
:10147000BB19234405EB430301349A7860F300025F
:101480006FF344029A705A88082C6FF349125A80FD
:101490000DD0BAF1010FD1D10020E9E70022094BAC
:1014A0004046494605F048FA05F0AAFEDEE7BDE8E9
:1014B000F08700BFAFF300800000C0FFFFFFDF41F7
:1014C000949BFF1F0000E03F38B501210D2003F081
:1014D00009FB0121102003F005FB00210E2003F081
:1014E00001FB0C2003F0DAFA4B484C4CFFF7E6FE08
:1014F00004F1300520790221103403F0F3FAA542FB
:10150000F8D103F0F5FA06F049FE01240822002183
:101510002046FFF701FF03F0EBFA06F03FFE2046FE
:10152000082200210134FFF773FF092CEED13C4B58
:101530001A7C012A20D972B6D86862B60028B8BFD2
:10154000033080100FD405F0ADFF4FF07C5105F053
:10155000F5FE06F0D7F9334B3349344A18600023BF
:101560000B60137038BD05F09DFF4FF07C5105F006
:10157000E3FE06F0C7F9EEE772B61A68586811780C
:101580000478587A1A7A044201EA02012CD09A7A35
:1015900002F0030209B142F0040242F00802911085
:1015A000013A99720D2AC7D801A151F822F000BF63
:1015B00011160000091600000116000009160000AF
:1015C00039150000F9150000111600001116000071
:1015D000F915000039150000091600000116000079
:1015E00009160000111600009A7A02F00302002981
:1015F000D5D042F00402D2E7D8680238D8609CE720
:10160000D8680230D86098E7D8680138D86094E785
:10161000D8680130D86090E7A89EFF1F3488FF1F6C
:10162000809BFF1F2C9CFF1F7C9BFF1F2A9CFF1F82
:101630000A4B93F900305A1C09D0002B06DB084AEC
:101640001378033B022B9CBF002313707047044B9D
:101650001A78022AFAD805221A707047709BFF1F69
:101660002A9CFF1F70B40C1A2611002E52DD14683C
:101670000368A3422BD04368A34208BF043026D09E
:101680008368A34208BF083021D0C368A34208BFC3
:101690000C301CD000EB06160CE00569A5421CD0EE
:1016A0005D68A5421CD09D68A5421CD0DD68A5429E
:1016B0001CD0184600F110039E42EED1CC1AA410A3
:1016C000022C1ED0032C04D0012C12D0084670BC72
:1016D000704710681A68824219D1184670BC70476A
:1016E000143070BC7047183070BC70471C3070BC30
:1016F00070471268186870BC904214BF08461846BC
:101700007047126818689042E7D00433F2E7043358
:101710000246F7E7A4100346D2E700BFF0B5334B0B
:1017200033491A68334C8FB00025019201981B6829
:101730000293314B029A0860022105201A6003F0DF
:10174000D1F90221062003F0CDF92C4B996A1A6BCE
:10175000E560012001F5007702F500764FF47A4349
:101760002760666020726072013BFDD191F8003203
:1017700092F80022224D23496C61D20703EA00034C
:1017800044BF43F00203DBB204220520A37202F03F
:10179000B5FF012304221C49AC610620237402F02A
:1017A000ADFF1A4A1A4B257C1A4912880E881A6115
:1017B000013500224FF4FA774FF0FF3116481F60D1
:1017C0005E615A609A60DA601A76DA6183F82020E6
:1017D0005A629A62DA621A639A642574FFF7D2F841
:1017E000042103A8FFF7CEF80FB0F0BD749FFF1FD0
:1017F000589EFF1F809BFF1F249CFF1F0CAE000004
:10180000E49EFF1FF90F00007D1000003088FF1FCD
:101810005C9EFF1F1288FF1FAC9EFF1F2DE9F04F3B
:1018200083B01E1DBDF93090BDF8344001941FFAFD
:1018300089F5041D36B2E81C0F469346314602B2C4
:10184000204698469DF838A002F06CFB384606F01A
:1018500037FF39460246204604F006FA204604F0D7
:101860003DFA05F10D02314612B2204602F05AFB54
:101870005946204604F00CFA204604F02FFABAF13B
:10188000000F02D103B0BDE8F08FBDF9043002268D
:1018900018254A46414620460D960C9503B0BDE8F2
:1018A000F04F02F02BB800BF2DE9F04F444B95B03C
:1018B0001B680C930C9B838604460B900D214148BA
:1018C00003F0E2FFA18E404804F058FA3E4804F0CD
:1018D00005FA3E4B1A68012A09D9394B1B680F9348
:1018E0000F9B41F287319B1A8B4240F271820B9B16
:1018F0001D1D2846FFF75EF82846012102F016FB61
:101900000022114601232846FEF7CEFF0022114691
:10191000284602F007FB2E4B2E490A930222284646
:101920001C4604F0A1F928462722002102F0FAFA09
:1019300002222949284604F097F92846022102F09C
:10194000F5FA28460B22012102F0ECFA0023284682
:1019500021780A2204F0D2F90023099332220121CE
:10196000284602F0DFFA1D4A0023117828460A2291
:1019700004F0C4F90121284602F0D8FA184B1A786D
:1019800012F0010209D10E4B16491B680D930D9BF5
:1019900089685B1A132B40F28283134B93F9003052
:1019A000013300F087831123049315230693172333
:1019B000079319234FF0140B08934FF0000A38E0F7
:1019C000749FFF1F24A70000648AFF1F7C9BFF1FDA
:1019D0001788FF1F80A7000084A700000E88FF1F44
:1019E0001688FF1F5C9EFF1F709BFF1F012B00F0DE
:1019F000EB80954B93F90030534500F0C781089C6C
:101A000007980699049A0E340E300E310E320AF100
:101A1000010A0BF10E03A4B280B289B292B2BAF1FC
:101A2000080F08940790069104921FFA83FB00F0B8
:101A30009F820A9B854A1B78854903EB03134FEA73
:101A4000CA0404EB83031344586805F07FFD0021AA
:101A5000064605F02DFF002800F0F0814FF07C5184
:101A6000304605F06BFC05F04DFF099B1BB1794B2F
:101A70001B78002BBAD1049BC0F11B02991C0120DA
:101A80000223019000932846082312B209B201F004
:101A9000B3FE0A9B1B7803EB031304EB83046B4B2D
:101AA0001C44207A10F00F0800F08480606805F074
:101AB000A3F8064640460F4605F07CF80022664B28
:101AC00005F0EEF802460B46804689463046394618
:101AD00004F032FF05F0DCFB0021044605F0D4FEE3
:101AE000002840F02A825A49204605F0EBFE0028E3
:101AF00040F013822046564905F028FD0446424630
:101B00004B463046394604F019FF05F0C1FB002171
:101B1000064605F0B9FE002840F00B824C493046DD
:101B200005F0D0FE002840F0E4814949304605F038
:101B30000DFD0021804605F0BBFEBDF910704FF091
:101B40007C51002840F03583404605F0F5FB05F058
:101B5000D9FEC0F11D0006B20021204605F0A8FE06
:101B6000002800F0D2814FF07C51204605F0E6FBC2
:101B700005F0C8FEC0F11B0400214046A4B205F0E8
:101B800097FE002800F0EC814FF07C51404605F0B4
:101B9000D5FB05F0B7FE04441A3C06FA84F4B442BF
:101BA00008DD32B20123394603362846FEF77CFEB3
:101BB000A642F6DB294B93F90030534500F06781CC
:101BC000099B002B40F08A81DFF89890DFF8908025
:101BD00099F80030D900CA18524408EB42029278B2
:101BE000D20740F133811D4A92F90020524500F09E
:101BF000A6810B44534408EB4303194C5B8813F450
:101C0000787F00F0EE8101263F22BDF91810009682
:101C100008232846FEF72EFC99F80030059603EBC2
:101C2000C303534404EB430300265C88C4F3441409
:101C3000204605F037FC01464FF0824005F03AFDA2
:101C40000746204651E000BF709BFF1F349CFF1FDA
:101C50000000A0401588FF1F0000E03F1688FF1F0E
:101C6000949BFF1F0E88FF1F4FF07C51204605F00C
:101C700065FB05F047FE86424CDA3946384605F0EA
:101C80005DFB0021044605F013FE002800F0CE8025
:101C90004FF07C51204605F051FB05F033FE10FB60
:101CA00006B40021384605F003FE24B24FF07C5103
:101CB000002800F0B580384605F040FB05F022FE14
:101CC000059B01930E2203B2009228462146322240
:101CD00001F092FD99F8003003EBC303534408EB85
:101CE000430301365888C0F3441005F0D7FB4FF08A
:101CF0007C5105F02BFC0021044605F0D9FD00289D
:101D0000B2D14FF07C51204605F016FB05F0FAFDEC
:101D10008642B2DBBE4B93F90030534500F0A680FB
:101D200099F8003003EBC303534408EB430898F8D9
:101D30000200C0F3430005F0B5FB014605F0FEFAD2
:101D40000021044605F0B4FD002800F0CA804FF0E1
:101D50007C51204605F0F2FA05F0D4FDC6B2C6F17A
:101D600040042644B442BDF91070BFF642AE22B220
:101D70000123394603342846FEF796FDB442F6DBCC
:101D8000A44B93F9003053457FF439AEA24CBDF912
:101D900018102378002B40F0C780BDF91C60222268
:101DA000202001238DE809003346284601F056FD26
:101DB0002378002B40F0B380BDF92030202222216F
:101DC0000120009101903146284601F047FD16E6BA
:101DD0000B9B914C1D1D2846FEF7ECFD284601216A
:101DE00002F0A4F80022114628460123FEF75CFD0C
:101DF0002278002A00F03B81012A00F0458102216F
:101E0000284602F093F82478834E844B002C00F08F
:101E10001B81012C0A9300F0288101230993A9E575
:101E2000384605F089FA05F06DFD49E74FF07C5121
:101E3000204605F081FA05F065FD30E74FF07C5152
:101E4000304605F079FA05F05DFD0EE601230193B9
:101E500000933F220623BDF91810284601F0CCFC60
:101E60006B4B93F9003053457FF45AAF6C4B1B78A2
:101E70000122002B00F0C1801D23019200932D222E
:101E800008230FFA8BF1284601F0B6FC48E7654BB2
:101E90006549186805F05AFB0146644805F04CFA9C
:101EA00000210646BDF9104005F002FD002800F0B3
:101EB00078814FF07C51304605F040FA05F022FD64
:101EC0000423012602B28DE8480021460D2328464E
:101ED00001F092FC099B002B3FF476AE4E4B1B7831
:101EE00084E54FF07C51204605F026FA05F00AFD06
:101EF00034E7DFF83C81042600212046BDF910704C
:101F000005F0D6FC00287FF42EAE4FF07C51204621
:101F100005F012FA05F0F6FC2CE6454CEFE5BDF9AC
:101F20002030222220214BE7BDF91C6020222220F4
:101F300037E71D264FF00008DEE70024DFE5384ACA
:101F40001278002A7FF455AE0E2201238DE80C0092
:101F5000BDF9181006233222284601F0CFFCD9E63D
:101F60004FF07C51404605F0E7F905F0CBFC12E656
:101F7000099B73B1284C2678012E00F0238146B9C5
:101F80002C4F3B78022B40F22182033B022B40F284
:101F9000B3802846FEF7CCFE0B9D274800242C601A
:101FA0000B2103F071FC254B25481B6810931099F9
:101FB00023460A2203F0A2FE0721224803F064FC14
:101FC0001E4BAA8E1B680E930E991D48891A234634
:101FD0000A2203F093FE1A4803F080FE15B0BDE814
:101FE000F08F0E2201238DE80C00BDF91810062396
:101FF0003222284601F000FC8CE602230192009375
:102000003E2208230FFA8BF1284601F0F5FB87E604
:102010001688FF1F709BFF1F1588FF1F1788FF1F63
:10202000309CFF1F749BFF1F0000A0400000D041A8
:102030000000C8412A9CFF1F6CA70000749FFF1F6F
:10204000648AFF1F78A700001F460B220121284643
:102050000A9301F067FF234639780A22284603F0E5
:102060004DFE3478012C7FF4D8AE099476E4114605
:10207000284601F057FF0222BF49284603F0F4FD2D
:102080002278012A7FF4BBAE28462722002101F0E6
:1020900049FF0222B949284603F0E6FDAFE60123D5
:1020A0007F212846FEF700FCB54B93F90030013341
:1020B0007FF479ACB34C2378002B0CBF2023222370
:1020C0004FF001060CBF22222022009328460196E1
:1020D0000623042101F0C2FB23780196002B14BFD4
:1020E00020232223009314BF22222022082306212A
:1020F000284601F0B3FB56E40A9B10AE197830462F
:1021000003F080FF3B78DDF82C909F49A3F1050395
:10211000B3FA83F328245B093120324602930190FD
:10212000002348460094FFF779FB304603F008FF90
:10213000964B974A1978974B3046002914BF1146A1
:10214000194603F03DFF3B7893490094A3F1040343
:10215000B3FA83F34FF022085B09324602934846F4
:102160003423CDF80480FFF759FB304603F0E8FE36
:102170008A4B3046197803F045FF3B788849CDF803
:102180000480A3F10303B3FA83F35B090293484687
:10219000009432465A23FFF741FB304603F0D0FE4D
:1021A000F7E64FF07C51304605F0C6F805F0AAFB83
:1021B00086E6404605F0C2F805F0A4FBC0F11D001C
:1021C00006B2C9E4774F3B78022B74D8764B6C4A41
:1021D0001B7892F90020754E7548764903EBC303CE
:1021E000134406EB43034FF000089B7813F0010FF4
:1021F00008BF014610A803F0E3FE3B78DDF82C9001
:102200006D49CDF80080B3FA83F35B09242010AA4E
:102210000293019043464846FFF700FB10A803F0E5
:102220008FFE0A9B564A1B7892F9002003EBC303EA
:10223000134406EB430310A89978C1F3430103F05C
:10224000E1FE3B78CDF80080A3F10103B3FA83F3FC
:102250005B092C2110AA0293019126235749484675
:10226000FFF7DCFA10A803F06BFE0A9B444A1B78C8
:1022700092F9002003EBC303134406EB43060A2242
:10228000718810A8C1F3441103F0D0FE3B78CDF85B
:102290000080A3F10203B3FA83F35B092F210293B9
:1022A00010AA5123019148464549FFF7B7FA10A8F3
:1022B00003F046FE3B78033B022B57D83A4B10AE57
:1022C0001978304603F09EFE3B78DDF82CA02E49AD
:1022D000A3F10503B3FA83F34FF000085B09312043
:1022E00032460293019043465046CDF80080FFF7F6
:1022F00095FA304603F024FE324B254A1978254BD7
:102300003046414514BF1146194603F059FE3B784B
:102310002149CDF80080A3F10403B3FA83F35B09EC
:102320004FF022093246029350463423CDF80490F0
:10233000FFF774FA304603F003FE234B304619785A
:1023400003F060FE3B781649CDF80490A3F1030337
:10235000B3FA83F35B0902935046CDF8008032460E
:102360005A23FFF75BFA304603F0EAFD2678002E89
:102370003FF406AE0DE600BF80A7000084A7000072
:10238000709BFF1F1588FF1F4CA70000289CFF1F94
:1023900020A700001CA7000054A700003288FF1FE0
:1023A0005CA700002A9CFF1F0E88FF1F949BFF1F45
:1023B00018A7000014A7000034A700003CA70000E5
:1023C00044A70000299CFF1F3388FF1F0A9B384A3F
:1023D0001B7892F9002003EB03139B0003EBC2036D
:1023E000344A134410A85968022203F033FE3A78A5
:1023F000DDF82C803049B2FA82F2282452092420D8
:1024000033460292019010AA40460094FFF706FA64
:1024100010A803F095FD0A9E254A337892F9002012
:1024200003EB03139B0003EBC203224A134410A8DF
:10243000197A01F00F0103F0E5FD3B780094A3F158
:102440000103B3FA83F35B092C2110AA02930191D3
:1024500026231A494046FFF7E1F910A803F070FD62
:102460003378134A03EB031392F900209B0003EB2C
:10247000C203104A134410A819890A22C1F3041197
:1024800003F0D4FD3B780094A3F10203B3FA83F385
:102490005B092F21029310AA51230191404608495C
:1024A000FFF7BCF910A803F04BFD3B786DE500BFCA
:1024B000709BFF1F349CFF1F64A700003CA7000017
:1024C00044A70000FFFFFFFF2DE9F04FA848A94CEB
:1024D00097B0FEF715FE2080092001F0CBFFA6493A
:1024E000A64B228809881880A54B8A421B88C0F019
:1024F0006F819A4280F06C819D4C247E002C00F00C
:102500006781A04BDFF8B4B21A80104604F0C6FF12
:102510009D499E4F05F0CEF8014604F00FFF01469D
:102520009B4805F0C7F805F013FADBF8003012936A
:10253000129B396880B25B1A984200F26B82DBF81A
:10254000003009938A4B934C099D9B6894F800E0F6
:10255000ED1A092D8CBF00250125BEF1000F40F0BA
:102560007281002D00F0A8818B4E8C4B317893F84E
:1025700000A0DFF84C82884D4FEA0A1303EB0A02F1
:10258000013118F8220049B2B1EB101F84483170B4
:102590000A464FF0000104BF00222A70017021702A
:1025A00001259A444FEA8A0A0AEBC20208EB020AA2
:1025B000DAF8040004F020FB80469AF8080000F0E6
:1025C0000F00894604F0F6FA0022764B04F068FB0F
:1025D00002460B46CDE904014046494604F0ACF9F9
:1025E00004F056FE824605F0E3FDDDE90423029087
:1025F0004946404604F0A2F904F04AFE514604F070
:102600009BFE04F0F9FA80460298894604F0E2FA4B
:1026100055A3D3E9002304F06DFC02460B46404667
:10262000494604F03DFB80465046894604F0E4FAF2
:1026300002460B464046494604F080F9DFF884E143
:102640000022002381468A469EF8008004F09AFD0D
:10265000002840F01B83404604F0BCFA02460B46BB
:102660004846514604F0ACFD002840F01782484629
:10267000514604F00DFE81464B4B4046C3F8009096
:1026800004F010FF0146484605F014F8474904F0ED
:102690005DFF05F037F90146282002F001F9002D11
:1026A00000F0F782DFF8209196F9002099F80030C9
:1026B000DFF8188103EBC303134408EB43035B8883
:1026C000C3F34413002B00F0FA822378384A013315
:1026D000DBB203F0010123701170102002F0EEF95B
:1026E00065B1317801F0010181F001010D2002F0A6
:1026F000E5F9DBF800301493149B3B602378002B42
:1027000040F0DA802B4E012333602B4B1A7C012AD8
:1027100000F2D88072B61A68586811780478587A2E
:102720001A7A044201EA020100F018839A7A02F050
:10273000030209B142F0040242F008029110013A8A
:1027400099720D2A00F2BF80DFE812F02403200303
:102750001C032003BD001803240324031803BD0039
:1027600020031C03200324030000C0FFFFFFDF4100
:102770005C9EFF1F789BFF1F3088FF1F0C88FF1F88
:102780001288FF1F1088FF1F00007042589EFF1F15
:1027900000007A44719BFF1F1688FF1F1788FF1FD8
:1027A000549EFF1F0000E03F749BFF1F00F07F4519
:1027B000309CFF1FA89EFF1F809BFF1F749FFF1F61
:1027C000349CFF1F1488FF1F0E88FF1F949BFF1F60
:1027D0005B1A40F2FE32934280B264DDB34A00FBE2
:1027E00003F382FB03201844DB17C3EB6023581864
:1027F000AF4BDFF810B3AF4F80B2188004F04EFE3D
:10280000AD4904F057FF014604F098FD0146AB487E
:1028100004F050FF05F09CF8DBF800301293129B97
:10282000396880B25B1A984200F2F480A44B1B7E98
:10283000002B7FF484AEA34C94F800E0BEF1000FAF
:102840003FF492AE0125DFF8A4929F4E99F8003034
:1028500096F90020DFF8B08203EBC303134408EBC2
:1028600043035B88C3F344139E45BFF67AAE90FBE7
:10287000F3FCDBF80000139013980EFB0CFE411ADA
:102880008E453FF66EAE002D7FF46FAE8F4909780E
:1028900000293FF417AF8E4BDFF8708293F800A049
:1028A0004FEA0A137DE603FB00000028B8BF00F2E0
:1028B000FF3001EBA0209BE7864B874E1A7C012A54
:1028C0007FF628AF72B6DC6862B6844D2B68A342EF
:1028D0004ED0FEF7ADFE002C2046B8BFE01C8010A5
:1028E00000F1CA8104F0DEFD4FF07C5104F026FDBA
:1028F00005F008F880462F68002F3846B8BFF81C4E
:10290000801000F1B08104F0CDFD4FF07C5104F057
:1029100015FD04F0F7FF804521D0714B93F900A01D
:10292000BAF1000FC0F2BA816E4B1B78002B00F099
:10293000EF806D4B02936D4A1B7892F80090002B4C
:1029400000F08082012B00F09B82022B00F0C682F7
:102950002146674803F012FA654803F0BFF9DBF837
:1029600000300A93634A0A992C6001231160336096
:10297000614CDFF880815A4FDFF86C9104F130052B
:10298000207802F0A1F848B3002323711034AC4240
:10299000F6D15A4B1A7A002A38D01B7E002B35D03C
:1029A000574B1A78002A00F03C813368002B12DD67
:1029B000DBF800300F930F9B524AB3F57A7F0AD9A8
:1029C000136810933E4B9968109B5B1A092B5DD8D6
:1029D0004148FEF769FF17B0BDE8F08F23796BB966
:1029E000DBF800300B930B9BA2689B1A0A2B05D9CE
:1029F00054F8043C012B32D9022B14D0DBF8003000
:102A00000E930E9BA36001232371BFE73C4B002272
:102A10001A70CAE72B4C94F800E0BEF1000F3FF4A7
:102A20004BAF00250FE7D8F80020012A40F20C81B7
:102A3000DBF800301593159B9B1A41F287329342C5
:102A400000F2028199F80030052B00F20581DFE8E1
:102A500013F0BC01B801CC01C801C401C001002BB6
:102A60003B780CBF0122FF2213445BB2072B3B7063
:102A700000F3E3800133C0F2AF8200F0E080DBF8C6
:102A800000300C930C9BC8F80030D8E01368119309
:102A9000119B591AB1F57A7F9AD89CE7404604F009
:102AA00089F804F0F5FB8146E6E500BF03082080C5
:102AB0001088FF1F589EFF1F0000704200007A44DC
:102AC0005C9EFF1F719BFF1F1688FF1F549EFF1FF8
:102AD0001788FF1F809BFF1FA89EFF1F2C9CFF1FB6
:102AE000709BFF1F1588FF1F2A9CFF1F0E88FF1F6A
:102AF000648AFF1F7C9BFF1F3888FF1F3488FF1FDD
:102B0000559EFF1F749FFF1F949BFF1F349CFF1F48
:102B1000BB4B0293BB4A1B7892F80090002B3CD130
:102B20004FEA09134FEACA020693DFF814830492AE
:102B30004B4402EB83034344A7425968B4BFB248F5
:102B4000B24804F0FBFB0021079004F09DFE002832
:102B500040F03481AE49079804F0B4FE08B1AC4BA4
:102B60000793069B049AAB484B4402EB83039844BB
:102B7000079BC8F80430072102F086FED8F804004D
:102B800004F03AF84FF0020E02460B46CDF800E092
:102B9000A14803F0FDF8029B1B78012B00F0D881BF
:102BA000022B7FF4D5AE4FEA091306934FEACA020F
:102BB0004B44DFF88C82049202EB83034344A74228
:102BC0001B89C3F3041380F21482072B3FF7C0AEB6
:102BD000924F16AA07F1600142F8043D38464FF0C3
:102BE0000003FEF73FFDC01B83100121069A0498E5
:102BF0004A4400EB820290440B44B8F8082057F88E
:102C00002330874863F308120921A8F8082002F04E
:102C10003BFEB8F808108048C1F3041103F0AEF889
:102C200096E68048804C0178226011F1FF3218BF8F
:102C30000122012102701970B7E6FF233B70FEF7F5
:102C4000F7FC54F8043CD7E697F900305A1C14BF3F
:102C50000023052389F80030DBF800300D930D9B2D
:102C6000C8F80030CAE604F01DFC4FF07C5104F0B7
:102C700063FB04F047FE4EE604F014FC4FF07C5179
:102C800004F05AFB04F03EFE804634E64FF00009A3
:102C9000F2E42378002B3FF435AD03E5584B1B7865
:102CA000052B00F08681032B78D0042B7FF450AEE7
:102CB0005E4A1378B3FA83F35B09137048E605F0B4
:102CC00077FA03F087FF4CA3D3E9002304F012F94D
:102CD0000022574B03F0E4FF00220023CDE902015C
:102CE00004F064FA002800F07A810022514BDDE9FB
:102CF000020103F023FE04F083FA824605F058FA3D
:102D000099F8003096F9002003EBC303134408EB55
:102D100043085FFA8AFA98F80230C3F343029245F7
:102D200025DA03F057FF34A3D3E9002304F0E2F8D7
:102D300004F0AEFA0021804604F0BAFD002800F04D
:102D4000AA814FF07C51404604F0F8FA04F0DAFD15
:102D5000011C394B18BF01211970BEE49A7A02F0A8
:102D6000030200293FF4EAAC42F00402E6E4324AEE
:102D7000C3F30003137003F00101AEE4DC68023C0E
:102D8000DC60A1E5DC680234DC609DE5DC68013CC8
:102D9000DC6099E5DC680134DC6095E5274A13784E
:102DA000A742ACBFFF2701273B4413F0FF0300F00D
:102DB0007A81082BA8BF08231370C9E50023079365
:102DC000CFE6022389F8003046E7012389F8003076
:102DD00042E7042389F800303EE7032389F80030F6
:102DE0003AE7052389F8003036E7002389F80030F8
:102DF00032E700BFAFF300800000C0FFFFFFDF41FC
:102E00002A9CFF1F1788FF1FCDCCCC3DCDCCCCBD5D
:102E10000000A04088A70000648AFF1F1888FF1FD9
:102E200098A700001588FF1F7C9BFF1F289CFF1F91
:102E3000000024400000E03F309CFF1F3288FF1F4D
:102E4000349CFF1F994A9A4809EBC903534402EB8B
:102E50004308042198F8023003F0010282F00102D5
:102E600062F3000388F8023002F00EFD98F80210B9
:102E7000904801F0010102F081FF029B1B7861E59F
:102E8000A74280F2F0804FEAC9020492DFF81C8268
:102E90004A44524408EB42029278C2F34302092AA0
:102EA0003FF756AD049984484944514408EB410822
:102EB000134498F8022063F34402062188F80220A4
:102EC00002F0E2FC98F802107A480023C1F34301B3
:102ED0000A2202F013FF029B1B7836E54FEAC90372
:102EE0000493DFF8C8814B44534408EB4303A742E3
:102EF0005B88C3F3441380F2A380072B3FF728AD10
:102F000016AA6E4F42F8043D07F160014FF000032E
:102F10003846FEF7A7FBC01B8310012204996848BE
:102F200049448A4408EB4A081344B8F8022057F889
:102F3000233063F349120921A8F8022002F0A4FC0F
:102F4000B8F802105B48C1F3441102F017FFFFE428
:102F5000A74261DA4FEA091206924FEACA014A44CF
:102F6000DFF87081049101EB82024244127A02F090
:102F70000F02092A3FF7ECAC06990498494400EB8C
:102F800081018844134498F808204B4863F30302F6
:102F9000062188F8082002F077FC98F808104548C8
:102FA000002301F00F010A2202F0A8FE029B1B7809
:102FB000F6E5444B1B78002B6AD1434A1378A742AD
:102FC000ACBFFF2701273B4413F0FF035DD0092B63
:102FD00028BF01231370BBE407233B704FE5002299
:102FE0003A4BDDE9020103F0A7FC04F009F982463F
:102FF00084E6002B3FF4ACAC304F16AA07F1600119
:1030000042F8043D38464FF00003FEF72BFBC01B8F
:1030100083104FF0FF31E9E54FEA091306934FEAB9
:10302000CA024B44DFF8AC80049202EB83034344B2
:103030001B7A13F00F033FF48BAC1A46FF239BE778
:10304000002B3FF485AC16AA1C4F42F8043D07F153
:1030500060014FF000033846FEF704FBC01B8310ED
:103060004FF0FF325AE74FEAC9030493DFF83C8080
:103070004B44534408EB43039B78C3F34303002BB7
:103080003FF466AC1A46FF230CE7082313705FE495
:103090000F4A137893E74FF07C51404604F04CF907
:1030A00004F030FC54E60123137051E4949BFF1F9D
:1030B000A4A70000648AFF1F90A700001888FF1FC4
:1030C00098A700001588FF1F1788FF1F0000E03F2A
:1030D0000E88FF1F349CFF1F90F8392090F83800AD
:1030E000101A704790F8383090F839209A4205D974
:1030F0005A1C034480F83820187E70474FF0FF3088
:10310000704700BF90F8383090F839209A4286BF57
:103110001B18187E4FF0FF30704700BF704700BF8C
:1031200038B50546B0F85E0090B195F85D301446AC
:10313000C3F1210294420CD805F13B001844224609
:1031400000F0ECFF95F85D30234485F85D302046B3
:1031500038BD012014462871EEE700BFB0F85E309C
:103160006BB190F85D30202B07D8C218013380F87E
:103170005D30012082F83B1070470123037100206D
:10318000704700BF0023426980F8383080F839303A
:1031900080F85C3080F85D3080F85E3080F85F3019
:1031A00006CA30B40D68046943662A4383660A6020
:1031B000A370426990F861301649146813441D7A6F
:1031C0005B7B01EBC5051B026D6803F4E06343F014
:1031D00064032B6090F8623013449D7CDB7D01EB2F
:1031E000C5011B02496803F4E06343F064030B600C
:1031F00021685368194205D0036927225A70036970
:1032000004229A71036920225A71036980229A70FC
:1032100030BC70470CAE000010B50269D378DBB249
:10322000D90604463DD510215806D17038D503F093
:10323000040303F0FF02002B51D03D49626E0023CE
:103240000B7084F85D30002A5BD0904794F85D30B5
:10325000002B56D02369D0229A70236994F83B2022
:103260001A712369012284F85C200222DA7010BDF1
:10327000304B84F860009C424AD02F4B9C4252D085
:1032800094F8391013791F29DBB207D82848007841
:1032900020B16018013184F8391003760223D3700D
:1032A00010BD5906C3D4917801F0100101F0FF0060
:1032B0000029DDD013F001031ED194F85C1094F8BE
:1032C0005D00884281BF4B1C091984F85C3091F87D
:1032D0003B3013712369D0229A702269DEE723699B
:1032E00084F83920C0229A702369114A1979012182
:1032F00011700222DA7010BDC02393702269137915
:10330000CCE70122002384F85D2084F83B30A1E75C
:10331000626994F86130094913440322187A01F074
:10332000EDF92269ACE7626994F861300449F3E78A
:10333000E09EFF1F6488FF1FD088FF1FA13300009D
:10334000AD3300000369DB7803F0200373B190F81C
:1033500060300133DBB2012B80F860301AD942694A
:1033600090F861301344187A01F044BA70B542699C
:1033700003F0FF0590F8613013440446187A01F019
:1033800039FAA36E5BB184F8385094F83900BDE87F
:103390007040184790F85F30002BE0D0704770BD48
:1033A0000148FFF7CFBF00BF6488FF1F0148FFF748
:1033B000C9BF00BFD088FF1F2DE9F047374FDFF8A6
:1033C000E0903B68026982B006460093DDF8008019
:1033D0000021A025D3789B065BD53B680193019B18
:1033E000C8EB03030F2BF5D949B1102BF2D0002005
:1033F0009070336980229A7002B0BDE8F0877269DC
:1034000096F8613013440521187A01F06BFB72695C
:1034100096F861301344012193F812A0504601F050
:1034200061FB09240021504601F048FB2B46013B7B
:10343000FDD10121504601F041FB2B46013BFDD15E
:10344000013CEFD1706996F8611001444FF4A0720D
:103450000C7A4B7B09EBC4011B02496803F4E0635F
:1034600043F064030B6096F862300344997CDB7D83
:1034700009EBC1011B02496803F4E06343F06403F4
:103480000B60013AFDD13269D3789B064FF0010100
:10349000A3D4012002B0BDE8F08700BF749FFF1FD6
:1034A0000CAE0000F0B503691222DA70026993785D
:1034B00003F0200385B004460D46002B5ED0B423F4
:1034C00093703C4922690B680093009E05E00B68ED
:1034D0000193019B9B1B042B42D8D37803F020035C
:1034E00003F0FF00002BF2D094F85D30002B31D0B8
:1034F0004FF0000E4FF0020C04EB0E0393F83B303C
:1035000013710B680393039F206907E09B060DD599
:103510000B680293029BDB1B052B28D8C378DBB218
:1035200003F0020202F0FF06002AEFD080F803C089
:103530002669F378DBB2DF0632462DD49F062BD501
:10354000DB0731D40EF1010E94F85D305FFA8EFE88
:103550007345D1D800201DBB002384F85E3004E001
:103560009070236980229A70042005B0F0BD8670A7
:103570002369802204209A7005B0F0BD03F0FF0695
:10358000FFF71AFF10B9042005B0F0BD236984F8D5
:103590005F60B0229A7094E78023B3700420DAE76A
:1035A00026698023B370D7E7BEF1000F0CBF02205D
:1035B0000320F6E7749FFF1F0148FFF72DBE00BFF1
:1035C0006488FF1F0148FFF727BE00BFD088FF1F98
:1035D0002DE9F04F85B09946BDF93870BDF83CA093
:1035E000BB1AC1EB090B002BB8BF5B42BBF1000F4C
:1035F000B8BFCBF1000B5B450D46164600938046E5
:1036000048DC4D453A4633464CDC194613460A46DB
:10361000C5EB09019B1A89B2002B0CB2B8BF5B4203
:1036200004EBD474BE42ACBF4FF0FF3201224D45D3
:10363000039102924FEA640429DC9BB201930DE0EE
:10364000D8F80070BF69B847019BE41AA3B21CB256
:103650000135002C2DB211DBA94518DB009B5B4521
:103660002A46534631464046EADCD8F80020534605
:103670009769294632464046B847E5E7029A16441C
:10368000039AA94502EB030436B224B2E6DA05B088
:10369000BDE8F08F4A462B46B94635464D4517469C
:1036A0001E46B2DD304629463E464D46074689460F
:1036B000AEE700BF10B404682469A44610BC60479C
:1036C00030B40468BDF808500295A46BA44630BC21
:1036D000604700BF30B40468BDF808500295E46B41
:1036E000A44630BC604700BF70B40468BDF90C60EC
:1036F000BDF8105003960495246CA44670BC604736
:10370000704700BF10B582B0B0F90C20019101687C
:10371000009200220C6CB0F90A301146A04702B0AA
:1037200010BD00BF704700BF01F003010129C17542
:1037300006D0032904D0C28803894281838170475F
:103740000289C38842818381704700BF2DE9F0411F
:103750000568134E6F6986B0B7420446BDF83080E5
:1037600010D1013B13441BB20093CDF804800B46EB
:10377000AD6A2046A8472368DB6AB3420AD106B087
:10378000BDE8F081059304920391B84703A9256829
:103790000EC9E6E7204606B0BDE8F041184700BF75
:1037A000013700002DE9F0410568124E6F6986B0BF
:1037B000B7420446BDF830800FD1013BCDF80480FC
:1037C0000B4400921BB2AD6A2046A8472368DB6A0F
:1037D000B3420AD106B0BDE8F0810593049203918B
:1037E000B84703A925680EC9E7E7204606B0BDE83B
:1037F000F0411847013700002DE9F04F0568DFF868
:1038000058B06F6985B05F450646BDF93890BDF880
:103810003CA00C46904615D11F19BC420CDACDF8DD
:1038200000A0214601342D6A4B464246304624B260
:10383000A847BC423568F2DBEB6A5B4507D105B0AF
:10384000BDE8F08F0393B8473568039BE4E7304643
:1038500005B0BDE8F04F1847013700002DE9F043EF
:1038600087B099420546BDF93840BDF83C6025D087
:10387000A24212D00768DFF88080D7F81490C145C3
:1038800032D18DE850002846BC6AA0472B68DB6A1D
:10389000434524D107B0BDE8F083994202DD0846D4
:1038A0001946034628680E96C46B01335B1A1BB297
:1038B0002846A44607B0BDE8F0436047A24202DDB7
:1038C000134622461C4628680E96631C846B9B1A7E
:1038D0001BB22846A44607B0BDE8F043604728461F
:1038E00007B0BDE8F0431847059304920391C84719
:1038F00003A92F680EC9C4E7013700002DE9F04F76
:10390000D0F800E0DFF89090DEF814B083B0CB453B
:103910000446BDF93080BDF834A00D4617461E465A
:1039200031D1CDF800A0DEF824B0294633463A461E
:103930002046D8472368CDF800A008F1FF323A446A
:10394000D3F824B0294612B233462046D84723681C
:10395000CDF800A02946D3F820B03A464346204689
:10396000D8472068CDF800A0711E29444346056A57
:1039700009B23A462046A8472368DB6A4B4506D180
:1039800003B0BDE8F08FD847D4F800E0C9E720467F
:1039900003B0BDE8F04F184701370000F0B4002431
:1039A00001264FF6FF75094F07600471C475C48185
:1039B00004824476C4618675067685824582C1801C
:1039C000028141818281F0BC704700BF18A80000CD
:1039D0002DE9F04F87B01746BDF9404000912546CC
:1039E000E91D059344BF2B4603F10E010268BDF8A3
:1039F000486053690294C91003912B49BDF94440B2
:103A000001968B42824645D1002C3CDD029B3C4412
:103A10005E1EB6B24FF0000923B2049301364D4644
:103A2000029B002B28DD059B002403EB090806E020
:103A3000EDB22B0604F1010411D4A6421CD0A1B2B0
:103A400011F0070F23B24FEA4505F1D1002BB8BFA3
:103A50000733DB10013418F803502B06EDD5009B1B
:103A6000D2F818B019443A4609B2019B5046D847DB
:103A7000A642DAF80020E2D1039B01379944049B67
:103A80003FB2BB42CCD1D36A074A934206D107B0BA
:103A9000BDE8F08F9847DAF80020B5E7504607B048
:103AA000BDE8F04F184700BF0137000070B4BDF902
:103AB0000C60BDF91050BDF81440039604950594B0
:103AC00070BCFFF785BF00BF2DE9F04F93B0904663
:103AD0000591C1691090BDF870000790BDF8749011
:103AE0009DF878A00493002900F0CD800A7A0AC9D5
:103AF000894604998A1AD2B203EBC203BAF1010FC4
:103B0000DA780B9293F905201E8893F802B00F9291
:103B100093F9064079D913B2099323B20C93109B01
:103B20001A68A94B1193194653698B4240F0A6803D
:103B30000B9B002B55D01FFA88F300210D93C8462C
:103B40002344DDF8409006910E930F460C46BBF1DE
:103B5000000F3FD0BDF818100C9B03971FFA8AF096
:103B6000CB1813FB00F304900E9801440D98034406
:103B700009B21BB20A910893002505E00135EBB2AA
:103B800064009B45E4B222D9039B2B44590703D11F
:103B9000731C18F806409EB22306EFD5099BBDF8AA
:103BA0001000E91811FB00F10598BAF1010F0FFAA6
:103BB0008AF301441CD0079801900093D26909B29E
:103BC00017464846089AB847D9F80020D6E7039F19
:103BD0005F44FFB2069B0B9901330693DBB2994217
:103BE000B5D8D36A119A934243D113B0BDE8F08F90
:103BF0000F9B191893690A9A29441F4609B2079B1B
:103C00004846B847D9F80020B8E700230C93099339
:103C100085E70A9A0D9B0132013B52B213F0FF0374
:103C20000A920D936FD1DDF81890079BDDF83C8068
:103C3000DDF820A04B4517D0BAF1010F00F0C88085
:103C40000B9A109DCDF804900BEB8B014FEACB0340
:103C50000A4400931146DEF81C405346424609B21E
:103C60002846A047D5F800E0DEF82C30119A9342A0
:103C7000BBD0109813B0BDE8F04F1847109D2846F0
:103C800098472A6854E7109A0598B2F90A30834297
:103C9000ABDDB2F90C304345A7DD062313FB0A0365
:103CA000002BA2DD08EBCA03002B9EDD537E2BB94F
:103CB000049BAF2B02D90133DBB20493109BD3F8E2
:103CC00000E0414B11931A46DEF81430934240F065
:103CD0008E801FFA88F30E9308339BB2BDF8142030
:103CE000059305230D9300230A93CDF83C800FFA2A
:103CF0008AF3DDF84080CDF818900B921FFA8AFB0A
:103D0000CDF820A099460A9ABDF810000B9C0E9D94
:103D10000523194611FB00232C481146C75C039765
:103D200002FB0B4214FA81F312B21BB209920C93FC
:103D30002C462E461CE0089B0999012B2AB24B46C3
:103D400040462DD0079F0197CDF80090DEF81CA0CB
:103D5000D047D8F800E0039B5B0801340393059B30
:103D6000A4B25D445E44A342ADB2B6B23FF451AFDB
:103D7000039BD807DFD4079B069A9342EBD0089B9E
:103D8000012B16D0069B0193CDF80090DEF81CA005
:103D900009994B4632B24046D047D8F800E0DAE7FE
:103DA000DEF818A0079B0C9922B2D047D8F800E0A3
:103DB000D1E7DEF818A00C991346404622B2D0474E
:103DC000D8F800E0C7E700BF0137000068A800008E
:103DD0000B99109DCDF800900531DEF8204009B216
:103DE000424608232846A047D5F800E03CE7109C4F
:103DF00020469847D4F800E06BE700BFF0B5C369F0
:103E000085B004462BB30A2968D00D294AD01A7A06
:103E1000914247D3587A884244D35D688A1A05EBA9
:103E2000C205AA78002A50D0E87800284DD0207E1C
:103E300000283AD095F905E0B4F90E00A67DB4F952
:103E40000A70724406FB0202BA4262DCB4F9102026
:103E500030E00A2956D00D2924D0027E002A4BD00A
:103E6000B0F90E00A57DB4F90A60062212FB050226
:103E7000B2423EDD228AE38102EBC50212B218464D
:103E80002282A78A668A02950B468DE8C000014609
:103E90002046FFF719FEA37DE28903EB430302EB03
:103EA0004303E381012005B0F0BDA67DB4F90E0007
:103EB000B4F91020B4F814E0678A02960B468DE836
:103EC000804001462046FFF7FFFD2979E389A27D66
:103ED000012001FB0233E38105B0F0BD0022C28165
:103EE0009A7A817D038A01FB02330382012005B0A7
:103EF000F0BDB4F91020C4E7857DB4F91020B0F905
:103F00000E00BEE7028A817DC38102EBC1030382FA
:103F1000C8E70020E0819B7A228A03FB062212B2C6
:103F20002282C7E7C1810282704700BF002908BF13
:103F300001218175704700BF81824182704700BFB7
:103F4000C07D7047B0F90A00704700BFB0F90C009F
:103F5000704700BF10B4047F4160022CC26002D0E1
:103F600010BC01F095BD836810BC1847F0B4464BF7
:103F7000464A186BDC6A01791170454922790A704A
:103F80009A6A00790870002A46D05968C9688A423E
:103F90003ED82168CC8B240402F1FF3065D4C0F3F5
:103FA0000E00C883C88B80B2C882196B0968C88BA1
:103FB000000452D4C2F30E00C883C88B002480B220
:103FC00012F1FF32C88218BF01229C62D96A2E48C2
:103FD00009680D6800F12404A54236D00068C46861
:103FE00014F0804F0C680D6815BF248824780235C2
:103FF000013544F000440D604463196B254B097989
:104000001970214912B1CA6A12791A70F0BC70474E
:10401000521A9A620122D9E7586B196805681E4C3A
:104020000A63CC62CC682D681C4E24F080440327C0
:10403000B542CC6083F825701FD1037F4260022B0C
:10404000C2601ED0F0BC01F023BD016890F82400CE
:10405000CC6840F000404863CFE7CC8BC2F3080047
:1040600004F47E442043C883A7E7CC8BC0F3080048
:1040700004F47E442043C88394E72B461146F0BCE9
:1040800018478368F0BC18473C89FF1F1F80004019
:104090001C8000401B80004000000FFF553F0000C7
:1040A00090E80C00F0B41C6859682568164F174E4C
:1040B00029432160164D17491760D66015611160BC
:1040C000417A154A5C180A3194F8244053F821507B
:1040D00002EBC40149680D60017A5C1803EB8101B1
:1040E000247ECD6902EBC40149680D60817A5818BD
:1040F00003EB810390F83000596B02EBC002F0BC77
:1041000053681960704700BF01401F00011000385C
:104110000110007800001F800CAE0000844641EAC8
:10412000000313F003036DD1403A41D351F8043B2F
:1041300040F8043B51F8043B40F8043B51F8043B81
:1041400040F8043B51F8043B40F8043B51F8043B71
:1041500040F8043B51F8043B40F8043B51F8043B61
:1041600040F8043B51F8043B40F8043B51F8043B51
:1041700040F8043B51F8043B40F8043B51F8043B41
:1041800040F8043B51F8043B40F8043B51F8043B31
:1041900040F8043B51F8043B40F8043B51F8043B21
:1041A00040F8043B51F8043B40F8043B403ABDD290
:1041B000303211D351F8043B40F8043B51F8043B32
:1041C00040F8043B51F8043B40F8043B51F8043BF1
:1041D00040F8043B103AEDD20C3205D351F8043BC1
:1041E00040F8043B043AF9D2043208D0D2071CBF8D
:1041F00011F8013B00F8013B01D30B8803806046B6
:10420000704700BF082A13D38B078DD010F003032B
:104210008AD0C3F10403D21ADB071CBF11F8013B9B
:1042200000F8013B80D331F8023B20F8023B7BE7EA
:10423000043AD9D3013A11F8013B00F8013BF9D215
:104240000B7803704B7843708B78837060467047AF
:10425000374A384913681B06FCD40B6813F08003F7
:10426000F8D172B634490A78002A5FD0334A34480C
:10427000F0B4344C176806682568D4680C303E44A6
:10428000143200681268304F35442C4420440244F4
:10429000C2F34E022D4E2E482E4D2F4C42F40042BA
:1042A0003A60376806682D682C4A24680C303E4412
:1042B000006812682A4F35442C4420440244C2F35B
:1042C0004E02284E2848294D294C42F400423A60BB
:1042D000376806682D68274A24680C303E44006819
:1042E0001268254F35442C4420440244C2F34E0248
:1042F000224E2348234D244C42F400423A60376852
:1043000006682D68214A24680C303E440068126813
:1043100035442C4420440244C2F34E021C4842F46B
:10432000004202600B7062B6F0BC704762B6704724
:1043300024B0034024B00B406D9FFF1F38B00340F2
:104340003CB0034040B003402CB0034058B00340A1
:104350005CB0034060B0034064B003406CB0034005
:1043600030B0034038B00B403CB00B4040B00B4085
:1043700044B00B404CB00B402CB00B4058B00B403D
:104380005CB00B4060B00B4064B00B406CB00B40B5
:1043900030B00B4030B42948294A2A4B2A4D6024BA
:1043A000E121047011701B78284C082B30D00A2BA7
:1043B0002748284937D00C2B0CBF35223D22122329
:1043C0002A60236002600B60234B24491B78244A37
:1043D000BBB101230B601360224B23491B78234A96
:1043E000012B26D9042B0FD9082B1ED9102B94BFD3
:1043F000862387230B6013601D4B01221A7030BC8B
:1044000070470B601360E7E784230B601360F3E7EA
:1044100000F58E200F490830012213232A60236003
:1044200002600B60D0E73922F7E785230B60136049
:10443000E2E780230B601360DEE700BF0040074027
:10444000014007407489FF1F08B003400CB00340CF
:1044500008B00B400CB00B40709FFF1F20B0034012
:1044600020B00B407589FF1F24B0034024B00B40DF
:104470006D9FFF1F28282FD8334B2DE9F0411E5C7C
:10448000FF2E2BD0314B1B78002B2AD132062CD497
:1044900072B62F4D2F4C2F46012326602B7062B62B
:1044A00072B623681B060CD43B781BB9F4E72B7853
:1044B000002BF1D062B601F01FFE72B62368180619
:1044C000F5D5254B1B6800222A7062B6234A107866
:1044D00043FA00F0BDE8F081002070470020BDE8FD
:1044E000F081FFF7B5FE3206D2D572B61C4DDFF86B
:1044F0007C801C4C06F04007FFB206F03F06D8F85F
:104500000030DFB123F01003C8F80030012326602B
:10451000134A2B7062B672B6236819060CD413784E
:104520001BB9ECE72B78002BE9D062B601F0E4FD73
:1045300072B623681B06F5D50B4BC3E743F0100397
:10454000C8F80030E2E700BFE0AD00006D9FFF1F3C
:104550006F9FFF1F00B0034010B003406C9FFF1F10
:104560006E9FFF1F00B00B4010B00B400CB00B4013
:104570000A4A0B49136843F4805313600B7843B124
:10458000084B80221A7080F30C00074B00B2188091
:104590007047044BC0221A70F5E700BF2C8004401E
:1045A000709FFF1F21C00C4000C00C4008B5104C8C
:1045B00008E0236859050DD423681A050FD4236831
:1045C000DB0411D423685803F3D500F029FC2368D9
:1045D0005905F1D501F0CCFF23681A05EFD502F09B
:1045E0005DF82368DB04EDD502F0EEF8EAE700BFE2
:1045F0003480044008B5FFF7D9FF00BF014B1022FB
:104600001A80704700200540704700BF094908B56F
:104610000B6830B16A461844A2F58052904202D22B
:104620000860184608BD03F0F3F90C2303604FF04F
:10463000FF3008BD7889FF1FFEE700BF704700BF4D
:1046400010B40F4B53F8302092F880422CB1012364
:1046500069B182F8803010BC704703EBC0035B681F
:104660001A6841B922F002021A6010BC704782F841
:10467000003110BC704742F003021A6010BC704752
:104680000CAE00001C4A02EBC00301295B6811D08C
:1046900004291BD052F83000002280F8802229B172
:1046A000022920D0032922D01A6070474FF480726B
:1046B0001A60704752F830004FF4A27280F88012EE
:1046C0001A601A6822F020021A60704752F83010FF
:1046D0004FF4A272012081F880021A601A6842F039
:1046E00020021A60704740F203121A6070474FF4BC
:1046F00081721A60704700BF0CAE0000212817D8E5
:10470000F8B5042A13D8DFE802F0494C4F144600EC
:104710002C4872B6236823F4702343F08072C4F3EC
:1047200084011643236040F82150266062B6F8BD2C
:1047300070474FF41026244B03EBC0030D465C6812
:10474000216811F4E06134D0204B214A2149C3F89B
:104750009C2104F140422048C3F8A411A2F5922103
:104760001E4FC3F8A0017C291D48C3F8A871C3F8E7
:10477000AC01CDD9A2F594237C2B18D9A2F59623B0
:104780007C2B19D9A2F598237C2B17D9A2F59A2254
:104790007C2A15D9F8BD4FF43026CCE74FF400261B
:1047A000C9E74FF44026C6E74FF42026C3E70D487B
:1047B000AFE7FFF767FFC7E70B48AAE70B48A8E793
:1047C0000B48A6E77C89FF1F0CAE00000082FF1F8C
:1047D000D187FF1F7987FF1FA587FF1F4D87FF1F09
:1047E0002187FF1FB489FF1F048AFF1F348AFF1F20
:1047F000548AFF1F1A4B03EBC00010B4426802F149
:104800004043A3F592217C2905D9A3F594217C2965
:1048100013D8144900E0144972B61368134C23F0FE
:104820008773C2F3840023F4803343F080731360F2
:1048300041F8204062B610BC7047A3F596217C2950
:1048400009D9A3F598217C2907D9A3F59A237C2BB4
:10485000F1D80749E0E70749DEE70749DCE700BF91
:104860000CAE0000B489FF1F7C89FF1F3D4600008D
:10487000548AFF1F048AFF1F348AFF1F30B4054B80
:10488000054D064C002210211A602A602060196034
:1048900030BC704714D0034004D0034000D0034024
:1048A000282838B52ED0002904464FDD5F4B1B78F1
:1048B000012505FA03F28A4202D8212837D938BDEA
:1048C0000338C2B2012A3AD9202C4AD0192C48D038
:1048D000574A126802FB011222FA03F31D2800F264
:1048E0009B80DFE800F0928B847D9999766F99998F
:1048F0009999999999999968615A53994C99999963
:1049000099999945494B1B780B2B08D90C2B1CBF47
:104910000C3B19410846BDE83840FFF729BEC3F1FA
:104920000C0399400846BDE83840FFF721BE2946F0
:10493000FFF786FE2946BDE83840FFF7A3BE3D4A93
:10494000126802FB011222FA03F3C7E72128B6D846
:104950000021FFF775FE20460121BDE83840FFF732
:1049600091BE354A126802FB011222FA03F3B5E741
:104970003249334A0B604FF45173136038BD3149EB
:10498000314A0B604FF45173136038BD2F49304AE0
:104990000B6040F24443136038BD2E492E4A0B6031
:1049A00040F24443136038BD2C492D4A0B6040F25D
:1049B0004443136038BD2B492B4A0B6040F24443FB
:1049C000136038BD29492A4A0B6040F24443136002
:1049D00038BD2849284A0B6040F24443136038BD73
:1049E0002649274A0B6040F24443136038BD2549ED
:1049F000254A0B6040F24443136038BD2349244AE2
:104A00000B604FF45173136038BD2249224A0B608A
:104A10004FF45173136038BD212C3FF650AF7F29FE
:104A2000D4BF00210121204693E700BF5C8AFF1F0D
:104A3000088003400890034008800B4010800B4022
:104A400048A0044018800B404CA00440188003404C
:104A500008B004401080034004B00440408003408C
:104A600018C004403880034014C00440288003402C
:104A700010B00440208003400CB00440308003405C
:104A800010C00440488003401CC0044018900340FC
:104A900034900440109003403090044038B1102806
:104AA00028BF1020044AC3B2107813707047024A1E
:104AB00001231078137070475C8AFF1F212801D8EA
:104AC000FFF7BEBD704700BF212806D8044B53F83E
:104AD000303093F80002C0B270470020704700BF2A
:104AE0000CAE0000212801D8FFF7CCBD704700BFF5
:104AF00072B60C490C4B0D4A1B680868126862B606
:104B0000520102D5322B88BF01300949C3F5BB33AE
:104B10004FF47A72FF33A1FB031302FB00F000EBAA
:104B200093107047749FFF1F18E000E004ED00E051
:104B3000ABAAAAAA2DE9F843054672B6204F214B2D
:104B4000214A1B683C68126862B6520102D5322BBA
:104B500088BF013495B3C3F5BB331C4EDFF86490B6
:104B6000DFF86480FF334FF47A72A6FB031302FB75
:104B700004F404EB931472B6D9F800103A68D8F82C
:104B800000E062B6C1F5BB33FF33A6FB03031EF0A2
:104B9000806FC4EB93134FF47A7002D0322988BF30
:104BA000013200FB0233B3F57A7F04D3013D05D017
:104BB00004F57A74DFE701F09FFADCE7BDE8F883DB
:104BC000749FFF1F18E000E004ED00E0ABAAAAAA62
:104BD000F8B52D4B2D49DFF8D0E0DFF8D0C02C4ED2
:104BE0002C4D2D4C2D4A2E4F4FF4000018604FF0E5
:104BF000807018604FF0007018604FF0806018608F
:104C00004FF0006018600020086028234BF6FF7109
:104C1000CCF80010CEF80030336013602B602360B6
:104C20003B60B3629362092245F8242CC4F8D80F84
:104C300005F57F65C7F8D41F07F5FF2707F5FA6765
:104C4000C6F8F83F2B6006F5FF26C4F8D42F05F50B
:104C5000FD2504F5FF24386006F2F4761148316032
:104C600005F5FF6504F5FD642B6023600260FFF726
:104C700091FB3220FFF75EFF00F0FEFC4FF4AF70B7
:104C8000BDE8F840FFF756BF08E100E004800340AC
:104C900014800340248003402C8003401C80034088
:104CA0003480034000800B400C80034008800340A8
:104CB000431E032B14D872B60A4951F8230068B179
:104CC00070B4094C058834F81320466841F8236015
:104CD000521B24F8132062B670BC704762B670474E
:104CE00000207047D09FFF1F54A2FF1F01380328E8
:104CF0000BD872B6074B53F8203043B100205B68E5
:104D00000130002BFBD162B6704700207047184677
:104D1000F9E700BF24A0FF1FF0B472B61A491B4E7A
:104D2000012311F8014B194F9A00240742F00105A5
:104D300005D556F8324064B156F83520BAB1013382
:104D4000052BEED162B6124B00221A70F0BC00F0B7
:104D50000FBD0F4C0F4D217847F8325007EB43132E
:104D600008304A1E5860227062B6F0BC704708498D
:104D7000094B0A7847F8353007EBC5030830013A8C
:104D800058600A7062B6F0E75CAF00000080FF1F59
:104D90004DA0FF1F88004000C8004000431E032BA9
:104DA0001DD81B4A400140F0100030B4104472B6C8
:104DB000184CE25C032A1BD8DFE802F00212151738
:104DC00003220D88E25410F0080F14BFC823882373
:104DD00043EA054308310360416062B630BC704766
:104DE00008300222EDE70522EBE708300422E8E76D
:104DF000094A52F8230038B1084A52F823004160AA
:104E000042F8231062B6E9E742F82310034AF7E7B5
:104E10000080FF1F5CA0FF1F24A0FF1F34A0FF1F06
:104E20002DE9F04FDFF804A3DFF804B387B044E0C6
:104E3000A94F4FEA930807EBC809013ED9F80420AF
:104E400003F00803F6B2A2F1080003F0FF04002B00
:104E500040F0FE8057F838301B0C99B222F8081C3D
:104E6000002B00F0EC809D4B22F8064C42F8044CDD
:104E700053F82620002A00F02B82994D55F8263051
:104E80005860984C45F8260034F81630194424F838
:104E9000161000F04DFC002800F01382924A934B4C
:104EA00019F0080F00F1080018BF1346C9F80400F4
:104EB00047F8383008238AF800309AF80040E4B206
:104EC00060071AD58A4B1B78A3B18A490A7802F089
:104ED000FF0322B1013BDBB20B7003B900BE864970
:104EE0000A7802F0FF032AB1013BDBB20B70002B02
:104EF00000F0BD8104238AF8003004F0080303F0B9
:104F0000FF02002B00F0C8809BF80030DBB21E09C6
:104F10008ED19C08704F57F8342007EBC401C2F3C0
:104F20008302013A49680C2A00F28580DFE802F02A
:104F3000797983838383838342838383070008682B
:104F40006E4B6F4D0193684B4A686E4E47F8343094
:104F500081B240F28164694B6A60286000220120BE
:104F6000A1421A603A61BA61307000F2E380B1F593
:104F7000D06F80F02782B1F5817F00F0E08100F2F0
:104F8000C381802900F03682822940F0DE81A98821
:104F90005D4B01F07F01042900F2D8815B4C890050
:104FA0000B44227062701A78930740F122832070BC
:104FB000022023E2514B01931A683AB3544B514EED
:104FC0005449188834780D784028864645F0020800
:104FD00028BF4FF0400E002C84F001043470CEEB5B
:104FE00000000CBF8824C82407EBC80680B285F0F7
:104FF000010544EA0E447260188047F83840724454
:105000000D70002800F0B780019B1A603C4B1A8895
:10501000B2F5A06F0FD100219A7859703E4B1A70EB
:1050200009E0374A108842F22102904200F0A8803D
:105030002D4A47F83420394A012313703AE72A4AA7
:105040002A4B19F0080F18BF134647F8383031E7DC
:1050500000F08EFB324A334952F82630002B00F024
:105060003B8158688C5D42F8260003F10802C9F8BC
:105070000420032C05D8DFE804F02C0229260222A4
:105080008A551A8819F0080F0CBF8823C82343EAF1
:10509000024347F838300DE7E00700F1EB802106C6
:1050A00000F12881A20706D51F4A20491378022063
:1050B000DBB213700870E30602D51C4B10221A7085
:1050C00007B0BDE8F08F04228A55DAE705228A5539
:1050D000D7E703228A55D4E70080FF1FD09FFF1F28
:1050E0007C9FFF1F54A2FF1FC800400088004000A3
:1050F00058A0FF1FE19FFF1F60A0FF1F789FFF1FA9
:1051000044A0FF1FE09FFF1FC020074050A0FF1FCB
:105110008C9FFF1F4CA0FF1F982007409420074042
:1051200024A0FF1F5CA0FF1F8820074080200740AD
:105130009020074042F22104A14200F0948043D81D
:10514000B1F5086F00F0A881B1F5106F40F0FD8057
:10515000B84AB94CA978117004F1800503E008340D
:10516000AC4200F09E81236A1906F8D5606A0838BF
:1051700000F0FEFAF3E7BEF1400F18BF002243E74C
:10518000AE4ACD1D11F8013B02F8013FA942F9D109
:10519000AB4A1268862A00F01181AA49AA4E0A7801
:1051A000307882F00105002842F002020D700CBF39
:1051B0008821C82147F8321007EBC20280F00100B5
:1051C00000213070516033E742F22124A14240F0C7
:1051D000FE81DFF8BCC29D4B9D49AC78DCF80050E5
:1051E0001D6081460C700020029080468446044673
:1051F00094490D7845F0020E07EBCE03B9F1000F8C
:105200005C600CBF8824C82444EA080385F00104CC
:1052100047F83E3032700C70DFF81CE28A4BDFF842
:105220002482002840F09880BCF1400F1BD144F04C
:10523000020407EBC403029FDFF8FCE15F60002A71
:1052400040F09F80020442F0880207444EF8342068
:1052500086F800900D703B46402804D100207D4A1E
:10526000019910800B607C4A01231370E3E600F083
:10527000EBFB3FE6704B784872491A614FF0020E23
:1052800080F800E0754F0A70754919609960754E95
:10529000754D764C9A610D213970FF213170DFF820
:1052A000F4E129702270724D724A8EF800109F2727
:1052B000012406F8047C5D600470DA6007B0BDE884
:1052C000F08F6D4A47F83800137801331370F1E519
:1052D00043F82600694DD4E58B5D032B67D801A206
:1052E00052F823F0B54E0000B54E000039530000CF
:1052F0003353000059495C4B80220D2008701A700E
:10530000A2077FF5D8AECFE640F20232914240F0DC
:105310005681A98801F07F01042916D86A88A2B9AC
:105320004E4C89000C448146217841F002012170E5
:1053300059E701238B55BDE500238B55BAE5A988B4
:1053400001F07F01042940F24781444B0F221A707B
:10535000414A012313706EE640287FF668AF44F09F
:1053600002040EEBC401029E4E60AAB1444A83F8C7
:1053700000903346403888F8005040334EF83420CF
:105380006DE70204029B86F8009042F0C8020D709F
:1053900003444EF834205FE783F80090029B304AC4
:1053A00088F80050403840334EF8342057E719F061
:1053B000080F0CBF022303238B557BE5314A0F21D5
:1053C0001170EAE6304A5468002CBED06888B5F8FF
:1053D00004E003E00C325468002CB6D013888342FA
:1053E000F8D153887345F5D1000A03280CBF207803
:1053F000108903E0254C022022706270EA88824204
:1054000080F00C810F490D78402A45F0020E944639
:1054100007EBCE0028BF4FF0400C04EB0C034460B8
:105420000293CCEB02004FEA0C484FF00109002236
:10543000C824E9E658A0FF1F0080FF1F5BA2FF1FE2
:105440005CA2FF1F4CA0FF1FE09FFF1F64A2FF1F75
:1054500070A0FF1F8C9FFF1F94200740C0200740B3
:10546000880040008820074080200740982007409F
:10547000909FFF1FE49FFF1F4DA0FF1F7C9FFF1FFA
:10548000C8004000E19FFF1F60AF000050A0FF1F59
:10549000749FFF1F8C200740684A694C1278227065
:1054A000ACE76849684B694A02916949694C6A4DA1
:1054B000039405964FF0000988461C46164604954D
:1054C000206828B1456800F053F92846002DF9D12D
:1054D00000232360049B30681A46002342F82930D9
:1054E00028B1456800F044F92846002DF9D1002282
:1054F0003260029A98F800301146002241F8042BDD
:10550000039A0291023B4FF0000122F81910032B7D
:1055100007D8DFE803F0340234024FF0010388F8C3
:10552000003009F10109B9F1040F04F1040406F196
:10553000040608F10108C3D1484B059EDFF83091FD
:10554000DFF8308100211970012518F8013B09F8B6
:10555000043B1A0718D4AC0044F0020244F00304E0
:10556000002347F8323047F834303D4B994505F178
:105570000105EAD196F8009089F0010233E64FF078
:10558000000388F80030CCE700F0D2F8AC0007EB5D
:10559000451300F10802002837D05A60314B47F814
:1055A000343000F0C5F844F0010307EBC30200F10A
:1055B000080100B351602C4A47F83320CCE7B1F51D
:1055C000A06F7FF4C2AE00224FF001090BE642F259
:1055D00021329142F7D0B8E66A88002A7FF4B5AE4E
:1055E000224C89000C448146217821F0020121706F
:1055F000F9E5022002E7194B44F001021B7847F855
:105600003200164A01331370A6E7144B134A1B7875
:10561000AC00013347F834001370C2E740288446D9
:1056200028BF4FF0400C04EB0C03CCEB00004FEA1A
:105630000C48029300224FF00109D9E558A0FF1F42
:1056400050A0FF1F34A0FF1FD09FFF1F24A0FF1FEB
:105650005CA0FF1F54A2FF1F7C9FFF1F4DA0FF1FD8
:10566000D420074088004000C8004000C020074008
:10567000C42007405CAF00002DE9F843204C01F046
:105680000FF9002204F1880023461A605A6008339B
:1056900083424FF00001F8D11A4A1B4F13681B4D8B
:1056A0001B481C4EDFF87880DFF878C0DFF8789070
:1056B000DFF878E043F480231360C4F307233B70E2
:1056C000C4F307432B70240EFF2302F52832047025
:1056D000114D88F8003011488CF80030D432337006
:1056E000012389F8003070268EF800104FF4007402
:1056F000102107F8183C2E7004601170BDE8F88383
:105700000080FF1F348004409C200740B0200740E9
:10571000B42007401020074049E400E008E100E021
:105720008020074088200740942007400021074040
:1057300072B60D480268B2FA82F30B2B10DC4FF000
:105740000041D94022EA0102026062B6074803EB39
:10575000C303DB00C2180021C150104651607047DE
:1057600062B60020704700BF608AFF1FBC83FF1F26
:105770000D4B0E4AC31AA2FB03231B090B2B0CD89B
:105780000B4A127852B972B60A484FF000410268CB
:1057900021FA03F31A43026062B67047064A127890
:1057A000002AF0D0FFF7B8BABC83FF1F398EE33868
:1057B0004DA0FF1F608AFF1F58A0FF1F38B50F4D77
:1057C000286878B143880288C118013393420C7A63
:1057D00002D24380204638BDFFF7CAFF002320468F
:1057E0002B6038BD064B1B782BB10320FFF760FA06
:1057F00028600028E6D14FF0FF3038BD6CA0FF1FB5
:1058000058A0FF1F10B5094C206818B143881844F0
:10581000007A10BD064B1B782BB10320FFF748FA26
:1058200020600028F2D14FF0FF3010BD6CA0FF1FA8
:1058300058A0FF1F044B054A1B6890881BB11A88AB
:105840005B88D31A184470476CA0FF1F54A2FF1F37
:105850000B4B1B789BB110B50A4C206848B1FFF781
:1058600087FF002303202360FFF722FA30B1FFF700
:105870007FFF0320FFF71CFA0028F8D110BD704706
:1058800058A0FF1F6CA0FF1F2DE9F04FDFF8F89024
:1058900083B0012289F80020019169B3DFF8EC8020
:1058A000364F019E8346D8F80000B0B3344D44888B
:1058B000C4F14001B14228BF314604EB010E002281
:1058C0001FFA8EFE2A70761AA0F802E000F1080294
:1058D00051B1013C224459441BF8014B02F8014FDD
:1058E0008B45F9D1B0F802E0BEF13F0F0BD8254A45
:1058F00005211170002ED6D10198002389F80030BF
:1059000003B0BDE8F08F4022028001460420FFF77B
:1059100045FA0022C8F80020E9E73A782AB3184D82
:105920004AF2F9244FF0010A07E0013C16D02A7828
:10593000A2B900F0E1FB3A78BAB10420FFF7D6F93A
:105940000728F2D889F800A0FFF7F2FEC8F8000097
:105950000028ACD10C4B013C1870E8D101234FF06A
:10596000FF302B7003B0BDE8F08F00234FF0FF3005
:1059700089F8003003B0BDE8F08F00BF58A0FF1FCA
:1059800068A0FF1F60A0FF1F61A0FF1F64A0FF1F92
:1059900000B583B002AB012103F8010D1846FFF7F3
:1059A00073FF03B05DF804FB38B50E4D0E4C28684C
:1059B0000123237028B1408800232370C0F14000E8
:1059C00038BD0A4B1B7813B90020207038BD042065
:1059D000FFF78CF90728F7D8FFF7AAFE2860002800
:1059E000E9D1F1E764A0FF1F61A0FF1F58A0FF1FCE
:1059F000F8B5114B1B788BB1104E114D346801274F
:105A00002F7064B10F4A63880027177021462380E6
:105A10000420FFF7C3F9376000232B70F8BDFFF7B0
:105A200087FE084B28B1014604201C70FFF7B6F929
:105A3000F2E71F70F0E700BF58A0FF1F64A0FF1F30
:105A400061A0FF1F60A0FF1F38B50E4B1B7873B914
:105A50000D4C216861B103F0FF054B880B800420D9
:105A6000FFF79CF9256038BD084B01221A7038BD3C
:105A7000FFF75EFE0028F7D00146BDE8384004205D
:105A8000FFF78CB961A0FF1F64A0FF1F60A0FF1F7C
:105A900010B4EFF3108272B6437F33B9017F01294E
:105AA00007D003290FD00123437702B962B610BC97
:105AB0007047124C2168A1B1114943610B688361A1
:105AC00008605861EFE70F4C216881B10E494361CE
:105AD0000B688361086058610C4B4FF0805119606E
